{
  "contractName": "Inbox",
  "abi": [
    {
      "inputs": [],
      "payable": false,
      "stateMutability": "nonpayable",
      "type": "constructor"
    },
    {
      "anonymous": false,
      "inputs": [
        {
          "indexed": false,
          "internalType": "string",
          "name": "response",
          "type": "string"
        }
      ],
      "name": "inboxResponse",
      "type": "event"
    },
    {
      "anonymous": false,
      "inputs": [
        {
          "indexed": false,
          "internalType": "string",
          "name": "_ipfsHash",
          "type": "string"
        },
        {
          "indexed": false,
          "internalType": "string",
          "name": "_address",
          "type": "string"
        }
      ],
      "name": "ipfsSent",
      "type": "event"
    },
    {
      "constant": false,
      "inputs": [
        {
          "internalType": "string",
          "name": "_address",
          "type": "string"
        },
        {
          "internalType": "string",
          "name": "_ipfsHash",
          "type": "string"
        }
      ],
      "name": "sendIPFS",
      "outputs": [],
      "payable": false,
      "stateMutability": "nonpayable",
      "type": "function"
    },
    {
      "constant": true,
      "inputs": [
        {
          "internalType": "string",
          "name": "_address",
          "type": "string"
        }
      ],
      "name": "getHash",
      "outputs": [
        {
          "internalType": "string",
          "name": "",
          "type": "string"
        }
      ],
      "payable": false,
      "stateMutability": "view",
      "type": "function"
    }
  ],
  "bytecode": "0x608060405234801561001057600080fd5b5061074d806100206000396000f3fe608060405234801561001057600080fd5b50600436106100365760003560e01c80633bc865091461003b5780635b6beeb91461018d575b600080fd5b61018b6004803603604081101561005157600080fd5b810190808035906020019064010000000081111561006e57600080fd5b82018360208201111561008057600080fd5b803590602001918460018302840111640100000000831117156100a257600080fd5b91908080601f016020809104026020016040519081016040528093929190818152602001838380828437600081840152601f19601f8201169050808301925050505050505091929192908035906020019064010000000081111561010557600080fd5b82018360208201111561011757600080fd5b8035906020019184600183028401116401000000008311171561013957600080fd5b91908080601f016020809104026020016040519081016040528093929190818152602001838380828437600081840152601f19601f8201169050808301925050505050505091929192905050506102c1565b005b610246600480360360208110156101a357600080fd5b81019080803590602001906401000000008111156101c057600080fd5b8201836020820111156101d257600080fd5b803590602001918460018302840111640100000000831117156101f457600080fd5b91908080601f016020809104026020016040519081016040528093929190818152602001838380828437600081840152601f19601f820116905080830192505050505050509192919290505050610563565b6040518080602001828103825283818151815260200191508051906020019080838360005b8381101561028657808201518184015260208101905061026b565b50505050905090810190601f1680156102b35780820380516001836020036101000a031916815260200191505b509250505060405180910390f35b6000826040518082805190602001908083835b602083106102f757805182526020820191506020810190506020830392506102d4565b6001836020036101000a03801982511681845116808217855250505050505090500191505090815260200160405180910390208054600181600116156101000203166002900480601f0160208091040260200160405190810160405280929190818152602001828054600181600116156101000203166002900480156103be5780601f10610393576101008083540402835291602001916103be565b820191906000526020600020905b8154815290600101906020018083116103a157829003601f168201915b5050505050606081905060008151146103d657600080fd5b826000856040518082805190602001908083835b6020831061040d57805182526020820191506020810190506020830392506103ea565b6001836020036101000a03801982511681845116808217855250505050505090500191505090815260200160405180910390209080519060200190610453929190610673565b507fe20751acac1c1604f322f90c67a302e99b44a472645e625269c08832cded23408385604051808060200180602001838103835285818151815260200191508051906020019080838360005b838110156104bb5780820151818401526020810190506104a0565b50505050905090810190601f1680156104e85780820380516001836020036101000a031916815260200191505b50838103825284818151815260200191508051906020019080838360005b83811015610521578082015181840152602081019050610506565b50505050905090810190601f16801561054e5780820380516001836020036101000a031916815260200191505b5094505050505060405180910390a150505050565b6060806000836040518082805190602001908083835b6020831061059c5780518252602082019150602081019050602083039250610579565b6001836020036101000a03801982511681845116808217855250505050505090500191505090815260200160405180910390208054600181600116156101000203166002900480601f0160208091040260200160405190810160405280929190818152602001828054600181600116156101000203166002900480156106635780601f1061063857610100808354040283529160200191610663565b820191906000526020600020905b81548152906001019060200180831161064657829003601f168201915b5050505050905080915050919050565b828054600181600116156101000203166002900490600052602060002090601f016020900481019282601f106106b457805160ff19168380011785556106e2565b828001600101855582156106e2579182015b828111156106e15782518255916020019190600101906106c6565b5b5090506106ef91906106f3565b5090565b61071591905b808211156107115760008160009055506001016106f9565b5090565b9056fea265627a7a7231582052acb5da4210408c5d1ce72414ec5a162e35ae2e44736174418e1bd86c9304bf64736f6c63430005100032",
  "source": "pragma solidity ^0.5.0;\r\n\r\n\r\ncontract Inbox{\r\n    //Structure\r\n    mapping(string => string) private ipfsInbox;\r\n\r\n    //Events\r\n    event ipfsSent(string _ipfsHash, string _address);\r\n    event inboxResponse(string response);\r\n\r\n    //Modifiers\r\n    modifier notFull (string memory _string) {\r\n        bytes memory stringTest = bytes(_string);\r\n        require(stringTest.length==0);\r\n        _;\r\n    }\r\n    // An empty constructor that creates an instance of the conteact\r\n    constructor() public{}\r\n\r\n    //takes in receiver's address and IPFS hash. Places the IPFSadress in the receiver's inbox\r\n    function sendIPFS(string memory _address, string memory _ipfsHash) notFull(ipfsInbox[_address]) public{\r\n        ipfsInbox[_address] = _ipfsHash;\r\n        emit ipfsSent(_ipfsHash, _address);\r\n    }\r\n\r\n    //retrieves hash\r\n    function getHash(string memory _address) public view returns(string memory) {\r\n        string memory ipfs_hash=ipfsInbox[_address];\r\n         //emit inboxResponse(ipfs_hash);\r\n        return ipfs_hash;\r\n    }\r\n}\r\n",
  "sourcePath": "D:\\Projects\\Node.js\\nodejs-api-ethereum-blockchain\\contracts\\Inbox.sol",
  "compiler": {
    "name": "solc",
    "version": "0.5.16+commit.9c3226ce.Emscripten.clang"
  },
  "schemaVersion": "3.4.14",
  "updatedAt": "2023-06-15T12:42:48.991Z",
  "networkType": "ethereum",
  "devdoc": {
    "methods": {}
  },
  "userdoc": {
    "methods": {}
  }
}